S00D000077617463682E7372656300
S113000012C02CC02BC02AC029C028C027C026C0BB
S113001025C0E1C923C062CA21C020C01FC01EC0C0
S11300201DC01CC01BC011241FBECFE5D4E0DEBF21
S1130030CDBF10E0A0E6B0E0ECE0F6E102C0059030
S11300400D92A63DB107D9F721E0A6EDB0E001C0BD
S11300501D92A43DB207E1F79FDAD6CAD1CF8CB97D
S11300605D9BFECF0895F894811102C0969A01C059
S11300709698959A959888E067FF02C0969A01C071
S11300809698959A9598660F8150B1F7789408954B
S113009081B18C7F81B910B80895CF93DF93D82FA5
S11300A0C62FF89462E281E0DEDF6D2F81E0DBDFB2
S11300B06C2F81E0D8DF7894DF91CF910895CF93AE
S11300C0DF93D82FC62FF89461E281E0CCDF6D2F47
S11300D081E0C9DF6C2F81E0C6DF7894DF91CF9196
S11300E00895823051F038F0843069F048F085305A
S11300F069F484E809C094EA04C084E986BF0BC0AB
S113010094E896BF03C084EC86BF02C0823019F025
S113011006B607FEFDCF81B1887F883331F088347D
S113012021F0803211F080E0089581E00895EF928B
S1130130FF920F931F93CF93DF931F92CDB7DEB738
S1130140E82E062F142FF89480E07983CADFF82E66
S11301508E2D880F83B983E0C4DFF80E798188E699
S1130160E81621F073B983E0BCDFF80E03B983E02D
S1130170B8DFF80E13B983E0B4DFF80E82E0B1DF24
S11301808F0D0F90DF91CF911F910F91FF90EF9002
S11301900895EF92FF920F931F93CF93DF93182F3D
S11301A0EB01042FE52EF22E843519F460367940E4
S11301B0F8F080E096DF812F880F83B983E091DF28
S11301C0183619F0D3B983E08CDFC3B983E089DF33
S11301D0102FC02FDE2D8C2F811B8F1528F48991B1
S11301E083B983E07EDFF7CF82E07BDF80E001C06C
S11301F081E0DF91CF911F910F91FF90EF900895CF
S11302000F931F93CF93DF931F92CDB7DEB7182FB1
S1130210062F80E0798365DF812F880F83B983E01F
S113022060DF7981183619F073B983E05ADF03B9B6
S113023083E057DF81E055DF812F880F816083B928
S113024084E04FDF85E04DDF13B182E04ADF812F88
S11302500F90DF91CF911F910F910895CF92DF926C
S1130260EF92FF920F931F93CF93DF931F92CDB71B
S1130270DEB7082F162FE42E80E0798332DF802F3B
S1130280880F83B983E02DDF7981083619F073B9BB
S113029083E027DF13B983E024DF81E022DF802FAE
S11302A0880F816083B984E01CDFF12C8E2D90E0EF
S11302B06C0121E0C21AD1080F2D10E00C151D05A8
S11302C04CF484E00EDF83B1F801EE51FF4F8083DC
S11302D0F394F2CF85E005DF83B1F601EE51FF4FD1
S11302E0808382E00F90DF91CF911F910F91FF9057
S11302F0EF90DF90CF90F5CE6EE070E188E680DF7E
S1130300482F4F776EE070E188E611CF6AE068D934
S1130310292F30E1839FC0011124822B089543E0EB
S113032060E070E088E69ADFA2EEB0E08C91E9EC40
S1130330F1E0982F9077969596959695292F220F10
S1130340220F920F8F70890F828311968C911197CF
S1130350982F9077969596959695292F220F220F90
S1130360920F8F70890F818312968C91982F9073BE
S1130370969596959695292F220F220F920F8F709E
S1130380890F808308951F93CF93DF9300D000D00B
S1130390CDB7DEB7182F842F6C83B8DF89836C81C7
S11303A0862FB4DF8A83812FB1DF8B8323E0AE01F4
S11303B04F5F5F4F60E070E088E6EBDE0F900F90D8
S11303C00F900F90DF91CF911F91089544E063E067
S11303D070E188E643DF8091E2008093D001809150
S11303E0E300982F92959F708F702AE0929F800D62
S11303F011248093D1018091E40084FB992790F922
S1130400990F292F220F220F920F8F70890F80933B
S1130410D2018091E500982F92959F708F702AE009
S1130420929F800D11248093D301A1EDB1E020E0CF
S113043030E04AE08D91F901E654FF4F642FD0D8A3
S1130440805D8083905D91832D5F3F4F293031051E
S113045089F71092C2000895CF93DF93CDB7DEB72A
S113046027970FB6F894DEBF0FBECDBF2F834E8300
S11304706D834CDF89836D81862F48DF8A834E81AB
S1130480842F44DF8B832F81822F40DF8C8324E0F1
S1130490AE014F5F5F4F63E070E088E67ADE279637
S11304A00FB6F894DEBF0FBECDBFDF91CF91089594
S11304B01F93CF93DF93F894979A83E58A95F1F786
S11304C00000979881EE94E00197F1F700C00000D6
S11304D0979ACFE3D0E01C2F185ECE018DD8682FF9
S11304E081E0C1DD21961C13F8CFC0E0D4E060E0C8
S11304F080E0B9DD2197D9F787E590E07DD8682FB2
S113050081E0B1DD7894DF91CF911F910895DF925E
S1130510EF92FF920F931F93CF93DF93062FD82E62
S1130520EC0182EE90E015E0180F8C2F8D198017E6
S1130530C8F4CE0161D895E0899FB001112445E04B
S113054084E58CDE82EEE82E80E0F82EF7016191DE
S11305507F0180E088DD1E11F9CF60E080E083DD5B
S11305602196E3CFDF91CF911F910F91FF90EF90F0
S1130570DF9008959C0180E0F901E80FF11D90815E
S1130580992311F08F5FF8CF08952F923F925F92D5
S11305906F927F928F929F92AF92BF92CF92DF928F
S11305A0EF92FF920F931F93CF93DF93EC017B01A4
S11305B0CB01E0DF882E18816981812F6EDD6B818C
S11305C08A817DDDC82CD12C46E0849E4001112413
S11305D000E0B12CA12C5FEFC51AD50A96E0592E84
S11305E082EE90E025E0622E680E802F90E0F70105
S11305F0E80FF91FE081EE2309F477C02B8130E086
S11306004A81241B3109498150E06881461B510904
S11306104F5F5F4F249FB001259F700D349F700D75
S11306201124681579050CF460C0E03269F577246B
S11306307394700E672D462F50E0C416D506C4F18E
S1130640F701E40FF51F70817F7DE1F4481B590B1E
S1130650549EB001559E700D11244AEF5B2D450345
S1130660C0011124280F391F2617370708F5173042
S1130670F9F01F5F612F812F10DD6B818A811FDDEF
S1130680072D15C06F5FD7CF4AEF5B2D4503C0011F
S11306901124280F391F2630310554F4173029F15D
S11306A01F5F612F812FF9DC6B818A8108DDB12CFA
S11306B0F701E00FF11D608185E0689FB00111240E
S11306C045E084E5CBDD82EE282E80E0382EF10172
S11306D061911F0180E0C7DC6210F9CFA394B39449
S11306E060E080E0C0DC0F5F80CF8A2DDF91CF9186
S11306F01F910F91FF90EF90DF90CF90BF90AF903C
S11307009F908F907F906F905F903F902F9008956F
S1130710EF92FF920F931F93CF93DF931F92CDB766
S1130720DEB7162FE22E682F620F4983C8DC498199
S1130730642F812FB2DC86E0E89E7001112410E062
S1130740812F90E0E816F9062CF0602F80E08BDC16
S11307501F5FF6CF0F90DF91CF911F910F91FF9004
S1130760EF900895BF92CF92DF92EF92FF920F9392
S11307701F93CF93DF93D82EB62E142F89E08D15B7
S1130780E8F08091E00091E0D9120CC080FF06C02F
S113079000E026E046E061E0812FBADF195F96E0D1
S11307A0C92E0DC080FF06C000E022E046E061E0F3
S11307B0812FAEDF1D5F82E0C82E01C0C12CCD2D7C
S11307C0D0E0CE01835D9F4F17D7082FCE01825D05
S11307D09F4F12D7C82FD0E0C01BD1094C2F440F14
S11307E0440F4C0F95E0099F90011124B9017B5FE0
S11307F084E534DDE12CF12C8B2D8E0D682F4DDC3E
S11308006FE7812F5CDC01E0802F90E0C817D907E7
S113081078F0F701E095F09585E0089FE00DF11D73
S11308201124EE51FF4F608180E01DDC0F5FECCF9F
S11308309FEFE91AF90A85E0E816F104E9F69AE06F
S1130840D91669F08091E00080FF09C02AE12C19D3
S11308508C2F2C1B00E046E061E0810F59DFDF9113
S1130860CF911F910F91FF90EF90DF90CF90BF90A9
S11308700895ECECF1E0A0EDB1E08C918083119649
S11308808C911197818312968C911297828313967F
S11308908C9183830895ADECB1E020E030E04AE030
S11308A08D91F901E654FF4F642F9AD6805D8083C1
S11308B0905D91832D5F3F4F2930310589F708956D
S11308C0A6ECB1E020E030E04AE08D91F901E0557A
S11308D0FF4F642F85D6805D8083905D91832D5F6B
S11308E03F4F2930310589F70895E6ECF1E0A9EC92
S11308F0B1E08C91808311968C911197818312962B
S11309008C91828308955F926F927F928F929F92CF
S1130910AF92BF92CF92DF92EF92FF920F931F9309
S1130920CF93DF938DEA882E80E0982E9AEAA92E41
S113093090E0B92E00E010E0C0E0D0E02AE0522EB2
S11309409E012D5F3F4F6901C90156D6F801ED554F
S1130950FF4F7F01652D44D6805D8083C6014CD650
S1130960652D3ED6905DF70191839E012050304065
S11309707901C90141D6F801E456FF4F3F01652DC5
S11309802FD6805D8083C70137D6652D29D6905D2B
S1130990F3019183C60130D6F40181934F01C7015D
S11309A02BD6F50181935F010D5F1F4F219719F03D
S11309B0C1E0D0E0C5CFDF91CF911F910F91FF909F
S11309C0EF90DF90CF90BF90AF909F908F907F90EB
S11309D06F905F9008950F931F93CF9309EC11E0EC
S11309E0F8018081CAE06C2FFBD546E061E0BADEF5
S11309F0F80180816C2FF4D5892F42E261E0B2DEE8
S1130A0041E461E08AE0AEDEF80181816C2FE8D533
S1130A1046E461E0A7DEF80181816C2FE1D5892FDE
S1130A2042E661E09FDE8091E0008E7F8093E000EB
S1130A30CF911F910F910895CF93DF9300D000D0F1
S1130A4000D0CDB7DEB786E0E4ECF0E0DE0111962D
S1130A5001900D928A95E1F76AEB70E0CE01019660
S1130A6094DD26960FB6F894DEBF0FBECDBFDF919E
S1130A70CF9108950F931F93CF93DF9300D000D0AD
S1130A801F92CDB7DEB7082F1091E100813049F0F5
S1130A90823079F4143010F481E006C01092E10041
S1130AA008C0112319F08FEF810F01C084E08093F7
S1130AB0E1008091E10089838A831B828AE08C8330
S1130AC081E08D836AEC70E0CE0101965EDD002347
S1130AD039F019831A836DEC70E0CE01019655DD6F
S1130AE00F900F900F900F900F90DF91CF911F9167
S1130AF00F9108959091CE018091CD0190FF03C094
S1130B00983018F00DC0983058F0803218F081E019
S1130B108093CD018091CD0181112AC08FE126C03F
S1130B209230D1F49091CF01937059F48E3118F032
S1130B3081E08093CD018091CD01811119C08DE1B7
S1130B4015C08D3118F081E08093CD018091CD01E5
S1130B5081110EC08CE10AC08F3118F081E08093BE
S1130B60CD018091CD01811103C08EE18093CD012F
S1130B7008950F93CF93DF9390E0A92FB0E0FA018B
S1130B80EA0FFB1F3081831718F0831B9F5FF5CF9B
S1130B90E82FF0E0EE0FFF1FAA0FBB1FA60FB71F31
S1130BA030E080E0432F50E06D917C911197E41781
S1130BB0F5073CF0EB01C40FD51F4881840F3F5F5C
S1130BC0F1CF990F920FE60FF71F2181492F692F5B
S1130BD09FDDDF91CF910F910895CF92DF92EF9235
S1130BE0FF920F931F93CF93DF93EB01D42EC22E6A
S1130BF078018130F1F48091DF00482F50E030E03B
S1130C002150310900E0421753073CF42D2DA70170
S1130C10B0DF8091DF008F5F19C02D2DA701A9DF00
S1130C2001E02D2DA701BE0180E0A3DF1092DF00BB
S1130C3026C08823F1F08091DF0000E0242FA70173
S1130C40882359F096DF8091DF0081508093DF0084
S1130C5001E02D2DA701BE0111C080E08ADFCA94F6
S1130C6001E02D2DA701BE018C2D83DFC092DF0092
S1130C7006C001E0242FA7018091DF007ADFDF9115
S1130C80CF911F910F91FF90EF90DF90CF90089537
S1130C90DF92EF92FF920F931F93CF93DF9300D0D5
S1130CA000D000D0CDB7DEB799E3E92E90E0F92E5D
S1130CB010E006E00E0DC7019FD4180F8FEFE81A5D
S1130CC0F80A0E11F8CF45E0410F6BE579E084E5B1
S1130CD0C5DA20E030E0F12C8FE7D82EEE24E3943F
S1130CE029832A8389010F5F1F4FC801875C9F4FA7
S1130CF083D4982F990F980F91959E5B9B83DC82E8
S1130D00ED821E826F2D70E069517F4FCE010196F6
S1130D103CDC8F0DFF24F394F80E98010530110587
S1130D20F9F626960FB6F894DEBF0FBECDBFDF915D
S1130D30CF911F910F91FF90EF90DF90089510BC19
S1130D408CE089B988E98AB986E880BD08950F9353
S1130D501F93CF93DF9300D000D01F92CDB7DEB79F
S1130D60A7DB8091DD00823278F48F31F8F484308F
S1130D7009F452C028F48230B1F08330B9F095C040
S1130D808551833080F091C0863940F48C3808F066
S1130D9043C08952893008F088C03EC0805F8330E8
S1130DA008F083C039C06AEB70E018C0A9ECB1E068
S1130DB020E030E04AE08D91F901E055FF4F642FC7
S1130DC00FD4805D8083905D91832D5F3F4F2930E8
S1130DD0310589F71092B80060EB70E084E890E088
S1130DE0D4DB63E083E059D96FE78EE268D962E02F
S1130DF089E290E08CDB63E083E04FD96FE780E425
S1130E005ED963E084E290E082DB02E810E025E052
S1130E1042E069E870E047C076DD85E0E0EDF0E0AF
S1130E20DE01119601900D928A95E1F763EA70E074
S1130E30CE010196AADB84E089838A836CE970E0A1
S1130E40CE010196A2DB19821A8266E086E025D9DA
S1130E506FE783E034D964E186E090E058DB62E038
S1130E6082E01BD96FE783E02AD964E186E090E051
S1130E704EDB60E080E011D96FE78FE320D966E0B4
S1130E808CE190E044DB64E084E007D96FE78FE312
S1130E9016D966E08CE190E03ADB00E610E026E14A
S1130EA041E064E670E080E098DE0F900F900F90D0
S1130EB00F900F90DF91CF911F910F9108950F9391
S1130EC01F938091DD00853119F1A8F48230E1F19E
S1130ED030F4813009F062C081E0CCDD5FC0833042
S1130EE099F1843009F05AC000E610E026E141E0AF
S1130EF064E670E051C08F3171F128F4863179F0E5
S1130F008731B9F04BC0803289F18132D1F146C0CA
S1130F108091CD018F5F8093CD01ECDD3FC0809146
S1130F20CE018C3010F48F5F01C081E08093CE013C
S1130F3035C08091CF01833620F48F5F8093CF0139
S1130F402DC01092CF012AC002E810E025E042E053
S1130F5069E870E021C08091C601873120F48F5F79
S1130F608093C6011BC01092C60118C08091C701AE
S1130F708B3320F48F5F8093C70110C01092C70198
S1130F800DC08091C8018B3320F48F5F8093C8011A
S1130F9005C01092C80102C081E01FDE8091DD000F
S1130FA084518A3070F477DC6AEB70E084E890E076
S1130FB0ECDA02E810E025E042E069E870E080E065
S1130FC00CDE8091DD008E518A3070F479DC60EBA8
S1130FD070E084E890E0D9DA02E810E025E042E02D
S1130FE069E870E080E0F9DD8091DD002AE0622F9D
S1130FF0F7D2F6D2943069F460EB70E084E890E0C4
S1131000C4DA00E610E026E141E069E870E080E03F
S1131010E4DD1F910F9108958091D800839915C044
S1131020982F90619093D80085FD07C09AE0909323
S1131030990080638093D800089580919900882353
S113104071F0815080939900089584FF08C08F7CCB
S11310508093D80080919800863008F030CF0895AE
S11310600F931F938091DD00853161F1A8F48230E4
S113107001F130F4813009F05DC082E0FBDC5AC03C
S11310808330B9F0843009F055C000E610E026E161
S113109041E064E670E013C08F3179F128F48631C1
S11310A0C1F0873101F146C0803289F18132C9F142
S11310B041C002E810E025E042E069E870E082E027
S11310C08CDD38C08091CD0181508093CD0112DD3B
S11310D031C08091CE01823010F0815001C08CE08B
S11310E08093CE0127C08091CF01882311F08150D5
S11310F001C083E68093CF011DC08091C60188237F
S113110021F081508093C60115C087E111C0809100
S1131110C701882311F0815001C08BE38093C7017C
S113112009C08091C801882311F0815001C08BE36C
S11311308093C8018091DD0084518A3070F4ABDB68
S11311406AEB70E084E890E020DA02E810E025E041
S113115042E069E870E080E040DD8091DD008E517E
S11311608A3070F4ADDB60EB70E084E890E00DDA77
S113117002E810E025E042E069E870E080E02DDD5F
S11311808091DD002AE0622F2BD22AD2943069F4B8
S113119060EB70E084E890E0F8D900E610E026E126
S11311A041E064E670E080E018DD1F910F9108953E
S11311B08091D800829915C0982F90649093D8009C
S11311C097FD07C09AE090939800806C8093D800B4
S11311D0089580919800882371F08150809398003D
S11311E0089586FF08C08F728093D800809198007C
S11311F0863008F035CF08958091DD008931A9F05B
S113120018F4883131F00895823291F08332E1F09C
S113121008952091CF014091CE016091CD0180913C
S1131220CC011AD9D3D882E00CC023DB82E00EC0F3
S11312304091C8016091C7018091C601A4D86FD8BC
S113124083E08093DD00089550DB83E08093DD002C
S11312502FD97DCD8091DD00823298F48F3108F052
S113126047C08330C9F120F4813011F1B0F02BC0B4
S1131270843009F43FC08551833008F047C082E0D0
S113128043C0863930F48C38F0F589528930D8F16E
S11312903DC0805F8330B8F139C080919B008111DB
S11312A001C006D98EE180939B0095DBC5DB2EC07F
S11312B08091E1008E5F8093DD0049DD1092E100B2
S11312C01092DF0023C08091D700813009F4D1DA75
S11312D08091DF008B5E08C08091D700813009F4D3
S11312E004DB8091DF00815E8093DD0085DF0EC02A
S11312F083E00AC08091D700813009F404DB809137
S1131300DF008C59F1CF84E08093DD008091DD0013
S11313108093D70008958091DD00843051F140F42A
S1131320813081F168F0823079F0833001F10895E1
S1131330853158F18831A8F08F518330A0F0089599
S113134081E08093DD0006C041D881E08093DD0018
S11313501092DF0060E080E086D6AAD899DC80E0B5
S113136089CB82E001C083E08093DD000895D7D764
S1131370ECCF81E08093DD0060E080E074D61092D1
S1131380DF00EBCF1092DD0093C808958091DE005A
S1131390849915C0982F92609093DE0080FD07C059
S11313A09AE090939A0083608093DE000895809180
S11313B09A00882379F0815080939A00089581FFE0
S11313C009C08C7F8093DE0080919A00863008F0FB
S11313D041CFA1CF08951F920F920FB60F921124FF
S11313E02F933F934F935F936F937F938F939F9329
S11313F0AF93BF93CF93DF93EF93FF9313BE789490
S11314008091E00083FF17C06091DA007091DB00E7
S11314102091D90046EA51E084E5BBD6811104C08D
S11314208FE41DD68BE41BD68091E000877F8093E8
S1131430E0001092D9008091D6006AE0D1D09111D9
S113144017C0D091CA01C091C90189EC91E067D756
S11314508091CA01D81729F08091E00081608093BF
S1131460E0008091C9018C1718F480ED91E0AED7AB
S11314708091D6008F5F8F3F19F08093D60002C011
S11314801092D60080EE81BB81DFC6DD91DE8091B3
S11314909B009091DD00882331F0911104C08150AC
S11314A080939B0006C0911104C06EEA81E0DBD5F5
S11314B011BA84E083BFFF91EF91DF91CF91BF9187
S11314C0AF919F918F917F916F915F914F913F91D8
S11314D02F910F900FBE0F901F9018951F920F928F
S11314E00FB60F9211242F933F934F935F938F93D3
S11314F09F93EF93FF9385B78F7785BF8CB19091BE
S1131500DC00913019F09230E9F033C090919700EB
S1131510282F30E0092E02C0220F331F0A94E2F76D
S11315204091DA005091DB00242B352B3093DB0003
S11315302093DA009850909397009923D1F0109259
S1131540DC0017C0833059F41092DC008091E00075
S113155088608093E00088E08093970010C09091A9
S1131560D900E92FF0E0EA55FE4F80839F5F909306
S1131570D900813011F0823011F48093DC00FF91A6
S1131580EF919F918F915F914F913F912F910F9088
S11315900FBE0F901F90189580EE81BB12BA479A28
S11315A077D5AAD6CCDB84D744E06EE070E088E639
S11315B0BED540E06FE070E088E6B9D5B0D606D776
S11315C00ADA3ADA81E089BF84E083BF12BE7894F4
S11315D085B78F7885BF85B7806885BF8895FBCF31
S11315E0991B79E004C0991F961708F0961B881F71
S11315F07A95C9F780950895E199FECF9FBB8EBB7C
S10F1600E09A99278DB30895F894FFCF69
S113160C040704077A006C007A006C00030C060CC7
S113161C060C060C060C060C060C1C0C060C060C14
S113162C0612030201012A7F0091008D002E0C0684
S113163C12290C060C060C080A0A0A1E68683A6D74
S113164C6D000068683A6D6D00000C00040C000419
S113165C68683A6D6D3A7373000064642F6D6D2F76
S113166C7979000007074F7F00003E00002000003E
S109167C00001B7F0000CA
S9030000FC
