S00D000077617463682E7372656300
S113000012C02CC02BC02AC029C028C027C026C0BB
S113001025C08BCA23C00CCB21C020C01FC01EC06A
S11300201DC01CC01BC011241FBECFE5D4E0DEBF21
S1130030CDBF10E0A0E6B0E0EEEAF7E102C0059023
S11300400D92A63DB107D9F721E0A6EDB0E001C0BD
S11300501D92A43DB207E1F749DBA7CBD1CF8CB900
S11300605D9BFECF0895F894811102C0969A01C059
S11300709698959A959888E067FF02C0969A01C071
S11300809698959A9598660F8150B1F7789408954B
S113009081B18C7F81B910B80895CF93DF93D82FA5
S11300A0C62FF89462E281E0DEDF6D2F81E0DBDFB2
S11300B06C2F81E0D8DF7894DF91CF910895CF93AE
S11300C0DF93D82FC62FF89461E281E0CCDF6D2F47
S11300D081E0C9DF6C2F81E0C6DF7894DF91CF9196
S11300E00895823051F038F0843069F048F085305A
S11300F069F484E809C094EA04C084E986BF0BC0AB
S113010094E896BF03C084EC86BF02C0823019F025
S113011006B607FEFDCF81B1887F883331F088347D
S113012021F0803211F080E0089581E00895EF928B
S1130130FF920F931F93CF93DF931F92CDB7DEB738
S1130140E82E062F142FF89480E07983CADFF82E66
S11301508E2D880F83B983E0C4DFF80E798188E699
S1130160E81621F073B983E0BCDFF80E03B983E02D
S1130170B8DFF80E13B983E0B4DFF80E82E0B1DF24
S11301808F0D0F90DF91CF911F910F91FF90EF9002
S11301900895EF92FF920F931F93CF93DF93182F3D
S11301A0EB01042FE52EF22E843519F460367940E4
S11301B0F8F080E096DF812F880F83B983E091DF28
S11301C0183619F0D3B983E08CDFC3B983E089DF33
S11301D0102FC02FDE2D8C2F811B8F1528F48991B1
S11301E083B983E07EDFF7CF82E07BDF80E001C06C
S11301F081E0DF91CF911F910F91FF90EF900895CF
S11302000F931F93CF93DF931F92CDB7DEB7182FB1
S1130210062F80E0798365DF812F880F83B983E01F
S113022060DF7981183619F073B983E05ADF03B9B6
S113023083E057DF81E055DF812F880F816083B928
S113024084E04FDF85E04DDF13B182E04ADF812F88
S11302500F90DF91CF911F910F910895CF92DF926C
S1130260EF92FF920F931F93CF93DF931F92CDB71B
S1130270DEB7082F162FE42E80E0798332DF802F3B
S1130280880F83B983E02DDF7981083619F073B9BB
S113029083E027DF13B983E024DF81E022DF802FAE
S11302A0880F816083B984E01CDFF12C8E2D90E0EF
S11302B06C0121E0C21AD1080F2D10E00C151D05A8
S11302C04CF484E00EDF83B1F801EE51FF4F8083DC
S11302D0F394F2CF85E005DF83B1F601EE51FF4FD1
S11302E0808382E00F90DF91CF911F910F91FF9057
S11302F0EF90DF90CF90F5CE6EE070E188E680DF7E
S1130300482F4F776EE070E188E611CF6AE012DA89
S1130310292F30E1839FC0011124822B089543E0EB
S113032060E070E088E69ADFA2EEB0E08C91E9EC40
S1130330F1E0982F9077969596959695292F220F10
S1130340220F920F8F70890F828311968C911197CF
S1130350982F9077969596959695292F220F220F90
S1130360920F8F70890F818312968C91982F9073BE
S1130370969596959695292F220F220F920F8F709E
S1130380890F808308951F93CF93DF9300D000D00B
S1130390CDB7DEB7182F842F6C83B8DF89836C81C7
S11303A0862FB4DF8A83812FB1DF8B8323E0AE01F4
S11303B04F5F5F4F60E070E088E6EBDE0F900F90D8
S11303C00F900F90DF91CF911F91089544E063E067
S11303D070E188E643DF8091E2008093D001809150
S11303E0E300982F92959F708F702AE0929F800D62
S11303F011248093D1018091E40084FB992790F922
S1130400990F292F220F220F920F8F70890F80933B
S1130410D2018091E500982F92959F708F702AE009
S1130420929F800D11248093D301A1EDB1E020E0CF
S113043030E04AE08D91F901E654FF4F642F7AD9F8
S1130440805D8083905D91832D5F3F4F293031051E
S113045089F71092C2000895CF93DF93CDB7DEB72A
S113046027970FB6F894DEBF0FBECDBF2F834E8300
S11304706D834CDF89836D81862F48DF8A834E81AB
S1130480842F44DF8B832F81822F40DF8C8324E0F1
S1130490AE014F5F5F4F63E070E088E67ADE279637
S11304A00FB6F894DEBF0FBECDBFDF91CF91089594
S11304B01F93CF93DF93F894979A83E58A95F1F786
S11304C00000979881EE94E00197F1F700C00000D6
S11304D0979ACFE3D0E01C2F185ECE015ED9682F27
S11304E081E0C1DD21961C13F8CFC0E0D4E060E0C8
S11304F080E0B9DD2197D9F787E590E04ED9682FE0
S113050081E0B1DD7894DF91CF911F910895DF925E
S1130510EF92FF920F931F93CF93DF93062FD82E62
S1130520EC0182EE90E015E0180F8C2F8D198017E6
S1130530C8F4CE0132D995E0899FB001112445E079
S113054084E58CDE82EEE82E80E0F82EF7016191DE
S11305507F0180E088DD1E11F9CF60E080E083DD5B
S11305602196E3CFDF91CF911F910F91FF90EF90F0
S1130570DF9008959C0180E0F901E80FF11D90815E
S1130580992311F08F5FF8CF08952F923F925F92D5
S11305906F927F928F929F92AF92BF92CF92DF928F
S11305A0EF92FF920F931F93CF93DF93EC017B01A4
S11305B0CB01E0DF882E18816981812F6EDD6B818C
S11305C08A817DDDC82CD12C46E0849E4001112413
S11305D000E0B12CA12C5FEFC51AD50A96E0592E84
S11305E082EE90E025E0622E680E802F90E0F70105
S11305F0E80FF91FE081EE2309F477C02B8130E086
S11306004A81241B3109498150E06881461B510904
S11306104F5F5F4F249FB001259F700D349F700D75
S11306201124681579050CF460C0E03269F577246B
S11306307394700E672D462F50E0C416D506C4F18E
S1130640F701E40FF51F70817F7DE1F4481B590B1E
S1130650549EB001559E700D11244AEF5B2D450345
S1130660C0011124280F391F2617370708F5173042
S1130670F9F01F5F612F812F10DD6B818A811FDDEF
S1130680072D15C06F5FD7CF4AEF5B2D4503C0011F
S11306901124280F391F2630310554F4173029F15D
S11306A01F5F612F812FF9DC6B818A8108DDB12CFA
S11306B0F701E00FF11D608185E0689FB00111240E
S11306C045E084E5CBDD82EE282E80E0382EF10172
S11306D061911F0180E0C7DC6210F9CFA394B39449
S11306E060E080E0C0DC0F5F80CF8A2DDF91CF9186
S11306F01F910F91FF90EF90DF90CF90BF90AF903C
S11307009F908F907F906F905F903F902F9008956F
S1130710EF92FF920F931F93CF93DF931F92CDB766
S1130720DEB7162FE22E682F620F4983C8DC498199
S1130730642F812FB2DC86E0E89E7001112410E062
S1130740812F90E0E816F9062CF0602F80E08BDC16
S11307501F5FF6CF0F90DF91CF911F910F91FF9004
S1130760EF900895BF92CF92DF92EF92FF920F9392
S11307701F93CF93DF93D82EB62E142F89E08D15B7
S1130780E8F08091E00091E0D9120CC080FF06C02F
S113079000E026E046E061E0812FBADF195F96E0D1
S11307A0C92E0DC080FF06C000E022E046E061E0F3
S11307B0812FAEDF1D5F82E0C82E01C0C12CCD2D7C
S11307C0D0E0CE01835D9F4FE8D7082FCE01825D34
S11307D09F4FE3D7C82FD0E0C01BD1094C2F440F43
S11307E0440F4C0F95E0099F90011124B9017B5FE0
S11307F084E534DDE12CF12C8B2D8E0D682F4DDC3E
S11308006FE7812F5CDC01E0802F90E0C817D907E7
S113081078F0F701E095F09585E0089FE00DF11D73
S11308201124EE51FF4F608180E01DDC0F5FECCF9F
S11308309FEFE91AF90A85E0E816F104E9F69AE06F
S1130840D91669F08091E00080FF09C02AE12C19D3
S11308508C2F2C1B00E046E061E0810F59DFDF9113
S1130860CF911F910F91FF90EF90DF90CF90BF90A9
S11308700895ECECF1E0A0EDB1E08C918083119649
S11308808C911197818312968C911297828313967F
S11308908C9183830895E6ECF1E0A9ECB1E08C91AE
S11308A0808311968C911197818312968C91828307
S11308B008955F926F927F928F929F92AF92BF92B0
S11308C0CF92DF92EF92FF920F931F93CF93DF9318
S11308D08DEA882E80E0982E9AEAA92E90E0B92E0F
S11308E000E010E0C0E0D0E02AE0522E9E012D5F2F
S11308F03F4F6901C90151D7F801ED55FF4F7F0101
S1130900652D18D7805D8083C60147D7652D12D722
S1130910905DF70191839E01205030407901C90117
S11309203CD7F801E456FF4F3F01652D03D7805DA6
S11309308083C70132D7652DFDD6905DF301918385
S1130940C6012BD7F40181934F01C70126D7F501C6
S113095081935F010D5F1F4F219719F0C1E0D0E033
S1130960C5CFDF91CF911F910F91FF90EF90DF9052
S1130970CF90BF90AF909F908F907F906F905F903B
S113098008950F931F93CF9309EC11E0F801808130
S1130990CAE06C2FCFD646E061E0E4DEF801808146
S11309A06C2FC8D6892F42E261E0DCDE41E461E0CD
S11309B08AE0D8DEF80181816C2FBCD646E461E080
S11309C0D1DEF80181816C2FB5D6892F42E661E032
S11309D0C9DE8091E0008E7F8093E000CF911F916B
S11309E00F910895CF93DF9300D000D000D0CDB7FE
S11309F0DEB786E0E4ECF0E0DE01119601900D92A2
S1130A008A95E1F76AEB70E0CE010196BEDD269689
S1130A100FB6F894DEBF0FBECDBFDF91CF9108951E
S1130A200F931F93CF93DF93CDB7DEB72B970FB6FA
S1130A30F894DEBF0FBECDBF082F1091E1008130C6
S1130A4049F0823079F4143010F481E006C0109239
S1130A50E10008C0112319F08FEF810F01C084E079
S1130A608093E1008091E10089838A831B828AE07C
S1130A708C8381E08D838091CA009091CB00A091FA
S1130A80CC0089879A87AB87BE01675F7F4FCE0111
S1130A9001967BDD002389F019831A838091CD00B0
S1130AA09091CE00A091CF008E839F83A887BE0132
S1130AB06A5F7F4FCE01019668DD2B960FB6F894DE
S1130AC0DEBF0FBECDBFDF91CF911F910F9108956F
S1130AD08091CE012091CD0180FF03C0883018F0B1
S1130AE00DC0883058F0203218F081E08093CD0199
S1130AF08091CD0181113AC08FE136C0823051F529
S1130B003091CF01E32FF0E0E053F84FCF0164E6DA
S1130B1070E01CD6892B11F0337031F0CF0160E9FD
S1130B2071E014D6892B59F42E3118F081E08093AA
S1130B30CD018091CD01811119C08DE115C02D31F8
S1130B4018F081E08093CD018091CD0181110EC018
S1130B508CE10AC02F3118F081E08093CD0180919F
S1130B60CD01811103C08EE18093CD0108958F9250
S1130B709F92AF92BF92CF92DF92EF92FF920F9328
S1130B801F93CF93DF931F92CDB7DEB7F82E5B018F
S1130B90E22E10E0C12ED12CFA01EC0DFD1D808156
S1130BA0F81618F0F81A1F5FF5CF89E658DA812F86
S1130BB06AE0C0D5805D998352DA998180E3890F18
S1130BC04EDA8AE04CDA8DE04ADA8F2C912C880CCC
S1130BD0991CCC0CDD1CCA0CDB1C20E0F12C822FF0
S1130BE090E08816990654F0F60140815181FA018B
S1130BF0E80FF91F8081F80E2F5FF1CF84E72FDA19
S1130C008F2D64E697D5805D998329DA8AE0B82E22
S1130C109981892F6B2D8ED5805D21DA8F2D6B2DD7
S1130C2089D580E3890F1BDA8AE019DA8DE017DAB7
S1130C30110F612F6E0DF60180819181880D991D30
S1130C40FC012181462F8F2D63DD0F90DF91CF9121
S1130C501F910F91FF90EF90DF90CF90BF90AF90D6
S1130C609F908F900895CF92DF92EF92FF920F930F
S1130C701F93CF93DF93EB01D42EC22E78018130E2
S1130C80F1F48091DF00482F50E030E02150310929
S1130C9000E0421753073CF42D2DA70168DF809133
S1130CA0DF008F5F19C02D2DA70161DF01E02D2D1D
S1130CB0A701BE0180E05BDF1092DF0026C088231D
S1130CC0F1F08091DF0000E0242FA701882359F080
S1130CD04EDF8091DF0081508093DF0001E02D2DF5
S1130CE0A701BE0111C080E042DFCA9401E02D2DAE
S1130CF0A701BE018C2D3BDFC092DF0006C001E0DE
S1130D00242FA7018091DF0032DFDF91CF911F9163
S1130D100F91FF90EF90DF90CF900895DF92EF92C4
S1130D20FF920F931F93CF93DF9300D000D000D096
S1130D30CDB7DEB729E3E22E20E0F22E10E006E084
S1130D400E0DC7012AD5180F2FEFE21AF20A0E1161
S1130D50F8CF45E0410F6BE579E084E57FDA20E0E8
S1130D6030E0F12C9FE7D92EEE24E39429832A83E3
S1130D7089010F5F1F4FC801875C9F4F0ED53AEF63
S1130D80282F3203C00111249C0121583F4F37FF03
S1130D9002C02F5F3F4F359527952D5F2B83DC8253
S1130DA0ED821E826F2D70E069517F4FCE01019656
S1130DB0ECDB8F0DFF24F394F80E98010530110538
S1130DC0A9F626960FB6F894DEBF0FBECDBFDF910D
S1130DD0CF911F910F91FF90EF90DF90089510BC79
S1130DE08CE089B988E98AB986E880BD08950F93B3
S1130DF01F93CF93DF9300D000D01F92CDB7DEB7FF
S1130E0057DB8091DD00823021F09CEE980F9A3000
S1130E1018F46AEB70E01EC0833021F092EE980F54
S1130E209A30B0F5A9ECB1E020E030E04AE08D91D1
S1130E30F901E055FF4F642F7DD4805D8083905D80
S1130E4091832D5F3F4F2930310589F71092B80007
S1130E5060EB70E084E890E098DB63E083E01DD908
S1130E606FE78EE22CD962E089E290E050DB63E028
S1130E7083E013D96FE780E422D963E084E290E051
S1130E8046DB02E810E025E042E069E870E050C08B
S1130E90843039F02AE0622F4DD44CD4943009F0D8
S1130EA04BC007DD85E0E0EDF0E0DE011196019036
S1130EB00D928A95E1F763EA70E0CE01019665DB55
S1130EC084E089838A836CE970E0CE0101965DDB5E
S1130ED019821A8266E086E0E0D86FE783E0EFD8F3
S1130EE064E186E090E013DB62E082E0D6D86FE74D
S1130EF083E0E5D864E186E090E009DB60E080E02F
S1130F00CCD86FE78FE3DBD866E08CE190E0FFDAC2
S1130F1064E084E0C2D86FE78FE3D1D866E08CE167
S1130F2090E0F5DA00E610E026E141E064E670E0E6
S1130F3080E099DE80E001C081E00F900F900F9077
S1130F400F900F90DF91CF911F910F9108950F9300
S1130F501F938091DD00853141F1B8F4823009F4AA
S1130F605EC030F4813009F0A2C081E059DD9FC039
S1130F70833009F454C0843009F099C000E610E0CD
S1130F8026E141E064E670E090C08F3109F44EC080
S1130F9028F48631D9F0873169F189C0803209F4A7
S1130FA05AC0813209F46CC082C08091CD018F5F38
S1130FB08093CD018DDD8091CD016AE0BBD3805D4E
S1130FC08093BA00905D9093BB0071C08091CE0174
S1130FD08C3010F48F5F01C081E08093CE0180914A
S1130FE0CE016AE0A7D3805D8093BD00905D9093AD
S1130FF0BE005DC08091CF01833620F48F5F809363
S1131000CF0102C01092CF018091CF016AE092D348
S1131010805D8093C000905D9093C10048C002E859
S113102010E025E042E069E870E03FC08091C6012D
S1131030873120F48F5F8093C60102C01092C601ED
S11310408091C6016AE076D3805D8093B000905DA4
S11310509093B1002CC08091C7018B3320F48F5F33
S11310608093C70102C01092C7018091C7016AE052
S113107061D3805D8093B300905D9093B40017C0FA
S11310808091C8018B3320F48F5F8093C80102C024
S11310901092C8018091C8016AE04CD3805D8093AE
S11310A0B600905D9093B70002C081E0DCDD8091D2
S11310B0DD0084518A3068F46AEB70E084E890E0E3
S11310C064DA02E810E025E042E069E870E080E0DC
S11310D0CADD8091DD008E518A3068F460EB70E0E7
S11310E084E890E052DA02E810E025E042E069E8A2
S11310F070E080E0B8DD8091DD002AE0622F1AD331
S113110019D3943069F460EB70E084E890E03DDA40
S113111000E610E026E141E069E870E080E0A3DD4C
S11311201F910F9108958091D800839915C0982F2D
S113113090619093D80085FD07C09AE09093990040
S113114080638093D800089580919900882371F07A
S1131150815080939900089584FF08C08F7C809308
S1131160D80080919800863008F0F1CE08950F934E
S11311701F938091DD00853179F1A8F4823019F153
S113118030F4813009F09EC082E04ADC9BC0833099
S1131190D1F0843009F096C000E610E026E141E089
S11311A064E670E016C08F3109F44FC028F486312C
S11311B021F18731B1F186C0803209F45CC08132FB
S11311C009F46DC07FC002E810E025E042E069E860
S11311D070E082E048DD76C08091CD01815080933B
S11311E0CD0176DC8091CD016AE0A4D2805D80934C
S11311F0BA00905D9093BB0065C08091CE018230AF
S113120010F0815001C08CE08093CE018091CE011A
S11312106AE090D2805D8093BD00905D9093BE00A3
S113122051C08091CF01882311F0815001C083E621
S11312308093CF018091CF016AE07CD2805D80935E
S1131240C000905D9093C1003DC08091C601882389
S113125021F081508093C60103C087E18093C801C7
S11312608091C6016AE066D2805D8093B000905D93
S11312709093B10027C08091C701882311F0815059
S113128001C08BE38093C7018091C7016AE052D209
S1131290805D8093B300905D9093B40013C08091FF
S11312A0C801882311F0815001C08BE38093C801E9
S11312B08091C8016AE03ED2805D8093B600905D63
S11312C09093B7008091DD0084518A3068F46AEB12
S11312D070E084E890E059D902E810E025E042E0AB
S11312E069E870E080E0BFDC8091DD008E518A30D7
S11312F068F460EB70E084E890E047D902E810E01D
S113130025E042E069E870E080E0ADDC8091DD003A
S11313102AE0622F0FD20ED2943069F460EB70E0B1
S113132084E890E032D900E610E026E141E064E68A
S113133070E080E098DC1F910F9108958091D800AF
S1131340829915C0982F90649093D80097FD07C098
S11313509AE090939800806C8093D80008958091CF
S11313609800882371F0815080939800089586FF37
S113137008C08F728093D80080919800863008F05E
S1131380F6CE08958091DD008931A9F018F48831F2
S113139031F00895823291F08332E1F00895209182
S11313A0CF014091CE016091CD018091CC0154D800
S11313B00DD882E00CC05DDA82E00EC04091C80115
S11313C06091C7018091C601DED7A9D783E08093DD
S11313D0DD00089560DA83E08093DD0069D807CDED
S11313E08091DD00833069F120F48130B1F050F058
S11313F01FC08531A8F1883180F18F51833080F589
S113140083E02CC080919B00811101C051D88EE1F2
S113141080939B00B6DAE6DA23C08091E1008E5F08
S11314208093DD00E4DC1092E1001092DF0018C02C
S11314308091D700813009F41CDA8091DF008B5E43
S113144008C08091D700813009F425DA8091DF004B
S1131450815E8093DD0096DF03C082E08093DD002F
S11314608091DD008093D70008958091DD00843061
S113147051F140F4813081F168F0823079F08330A9
S113148001F10895853158F18831A8F08F518330E6
S1131490A0F0089581E08093DD0006C097D781E035
S11314A08093DD001092DF0060E080E0DCD500D89E
S11314B035DC80E0B5CA82E001C083E08093DD00C2
S11314C008952DD7ECCF81E08093DD0060E080E0CB
S11314D0CAD51092DF00EBCF1092DD00E9C7089562
S11314E08091DE00849915C0982F92609093DE005D
S11314F080FD07C09AE090939A0083608093DE0099
S1131500089580919A00882379F0815080939A00FD
S1131510089581FF09C08C7F8093DE0080919A003A
S1131520863008F05DCFA1CF08951F920F920FB6B9
S11315300F9211242F933F934F935F936F937F9355
S11315408F939F93AF93BF93CF93DF93EF93FF93C7
S113155013BE78948091E00083FF17C06091DA0095
S11315607091DB002091D90046EA51E084E511D660
S1131570811104C08FE473D58BE471D58091E000B0
S1131580877F8093E0001092D9008091D6006AE0B2
S1131590D1D0911117C0D091CA01C091C90189EC71
S11315A091E0BDD68091CA01D81729F08091E0005E
S11315B081608093E0008091C9018C1718F480ED5C
S11315C091E004D78091D6008F5F8F3F19F080930C
S11315D0D60002C01092D60080EE81BB81DFA3DD6D
S11315E0ADDE80919B009091DD00882331F0911154
S11315F004C0815080939B0006C0911104C06EEA20
S113160081E031D511BA84E083BFFF91EF91DF917E
S1131610CF91BF91AF919F918F917F916F915F9186
S11316204F913F912F910F900FBE0F901F901895DF
S11316301F920F920FB60F9211242F933F934F9343
S11316405F938F939F93EF93FF9385B78F7785BFB6
S11316508CB19091DC00913019F09230E9F033C0F4
S113166090919700282F30E0092E02C0220F331FDB
S11316700A94E2F74091DA005091DB00242B352BD9
S11316803093DB002093DA009850909397009923CD
S1131690D1F01092DC0017C0833059F41092DC00B2
S11316A08091E00088608093E00088E08093970058
S11316B010C09091D900E92FF0E0EA55FE4F8083E5
S11316C09F5F9093D900813011F0823011F48093A0
S11316D0DC00FF91EF919F918F915F914F913F912A
S11316E02F910F900FBE0F901F90189580EE81BB25
S11316F012BA479ACDD400D672DBDAD644E06EE053
S113170070E088E614D540E06FE070E088E60FD51D
S113171006D65CD636D966D981E089BF84E083BF1A
S113172012BE789485B78F7885BF85B7806885BFEA
S11317308895FBCF991B79E004C0991F961708F090
S1131740961B881F7A95C9F78095089597FB072EF5
S113175016F4009406D077FD08D00BD007FC05D012
S11317603EF4909581959F4F0895709561957F4FB4
S11317700895AA1BBB1B51E107C0AA1FBB1FA617D4
S1131780B70710F0A61BB70B881F991F5A95A9F726
S113179080959095BC01CD010895E199FECF9FBB42
S11117A08EBBE09A99278DB30895F894FFCF7D
S11317AE040704077A006C007A006C00030C060C24
S11317BE060C060C060C060C060C1C0C060C060C71
S11317CE0612030201012A7F0091008D002E0C06E1
S11317DE12290C060C060C080A0A0A1E68683A6DD1
S11317EE6D000068683A6D6D00000C00040C000476
S11317FE68683A6D6D3A7373000064642F6D6D2FD3
S113180E7979000007074F7F00003E00002000009A
S109181E00001B7F000026
S9030000FC
